:020000040000FA
:100000000030002099020000A1020000A3020000BD
:1000100000000000000000000000000000000000E0
:10002000000000000000000000000000A502000029
:100030000000000000000000A7020000A90200006C
:10004000AB020000AB020000AB020000AB020000FC
:10005000AB020000AB020000AB020000AB020000EC
:10006000AB020000AB020000AB020000AB020000DC
:10007000AB020000AB020000AB020000413A0000FE
:10008000AB020000AB020000D93C0000AB02000054
:10009000AB020000AB020000AB020000AB020000AC
:1000A000AB020000AB020000AB020000AB0200009C
:1000B000AB020000AB020000AB020000AB0200008C
:1000C00000F002F800F0C3F80CA030C8083824187B
:1000D0002D18A246671EAB4654465D46AC4201D180
:1000E00000F0B5F87E460F3E0FCCB64601263342EF
:1000F00000D0FB1AA246AB463343184718730000E2
:1001000038730000103A02D378C878C1FAD8520781
:1001100001D330C830C101D504680C6070470000BD
:100120000023002400250026103A01D378C1FBD813
:10013000520700D330C100D50B60704710B56E294F
:1001400002D101F019FD10BD702902D100F09FF914
:1001500010BD662902D106F0D5FE10BD652902D179
:1001600006F0D0FE10BD672902D106F0CBFE10BD0F
:10017000612902D1C046C04610BD03681B0A01D3E5
:1001800080231943692902D100F0BCF810BD64290D
:1001900002D100F0B7F810BD752902D100F0B2F815
:1001A00010BD6F2902D101F0E5FD10BD782902D103
:1001B00000F05AF910BDE92902D101F081FD10BD0E
:1001C000E42902D101F07CFD10BDF52902D101F036
:1001D00077FD10BDEF2902D101F0D8FD10BDF8293F
:1001E00002D100F04FF910BD0368DB0901D3802371
:1001F0001943632902D102F0C2FC10BD732902D158
:1002000002F0C5FC10BDE32902D102F0CFFC10BD05
:10021000F32902D102F0D2FC10BD002010BD1FB5A1
:100220000098019902F019FA02F062FF0400002020
:10023000002106F059FC401C60600020002106F0FF
:100240003DFCE06002F00AF800F0D8FC1FBD05F0AC
:10025000E9FA1146FFF7E3FF03F0E6FB05F0ECFBDC
:1002600070B505460C46164602E00FCC0FC5103E91
:10027000102EFAD2082E02D303CC03C5083E042E5A
:1002800007D301CC01C5361F03E021782970641C17
:100290006D1C761EF9D270BD0448804704480047A3
:1002A000FEE7FEE7FEE7FEE7FEE7FEE7413C000073
:1002B000C100000010B50B460146184601F08EFC47
:1002C00010BD0FB4014610B504AA039801F086FCD6
:1002D00010BC08BC04B018470FB41CB5084B06AAE4
:1002E0007B4469460090059801F05FFC04460020BD
:1002F000694601F06DFC20461CBC08BC04B01847E0
:10030000ED180000F7B5002575291068009914A6AE
:1003100011D001F09EFB002802DA404211A608E04D
:10032000009909688A0701D50FA602E0490704D59C
:100330000EA6012501E001F095FB009F0024243763
:1003400004E002F070F830313955641C0028F8D10F
:100350002B4632462146009801F0B6FBFEBD000058
:10036000000000002D0000002B0000002000000015
:100370000FB400B58DB010A909900B900020C043B8
:1003800000910A9000200C90074878440690074896
:1003900078446A4607900F9909A801F017FD0DB03F
:1003A00008BC04B018470000631A00007D1A000062
:1003B00010B5002902D0FF22013201E00122920291
:1003C00001235B0201F0ACFE10BDF8B507461546EF
:1003D0000E46102001F0B4FA040009D06760A66050
:1003E000E56001F0A9FA0168216004600020F8BD11
:1003F0000120F8BD0048704780F9FF1F7047704723
:10040000FFFFFFFFFFFFFFFFFFFFFFFFFEFFFFFFFD
:10041000F8B50F460188090502D5224C7C4402E05C
:10042000204C7C440E3405460021243508E0160794
:100430001209360FA65D6E541E0732431B09491C74
:1004400016461E43F3D1224604780023240705D51F
:10045000702F06D0002901D00223113201F034FBA5
:10046000F8BD01231032F9E770B504460D46214668
:10047000106801F0F7FA0023024629462046FFF7EC
:10048000C7FF70BDD21DD308DB000CCBC0E730B472
:10049000036820241268234303600823C36130BC2F
:1004A0000023B5E7E46B0000F3B50446002081B0FB
:1004B00020622046E1688847002872D0252802D0B3
:1004C0006268A168ABE0594F00267F442046E1688E
:1004D00088472028054608DB312D06D278192038B8
:1004E0000078002801D00643F0E7B00701D50420CA
:1004F00086430020E0610746A0612A2D0AD02846E5
:1005000005F098F9002827D0B8000019303D009078
:10051000856119E00298BA00121902C8916102902F
:100520002046E1688847012F054617D1E069002879
:100530001FDA202086431CE000980A218069484386
:1005400000994019303888612046E168884705469F
:1005500005F070F90028EFD1012F0AD02E2D08D117
:100560002046E16888470546202006437F1C022F6D
:10057000C3DBA069002803DA4042A06101200643E2
:10058000F00701D0102086436C2D0BD0682D09D0C8
:100590004C2D3CD06A2D38D0742D38D07A2D36D0E1
:1005A00016E040E0E1682F4620468847B8420546FD
:1005B00009D16C2F29D001208002E1680643204632
:1005C0008847054604E06C2F1DD0FF20013006430C
:1005D000002D28D028464138192803D80120C00210
:1005E00006432035204626602946029A1646FFF724
:1005F000A5FD002810D001280BD0F61DF008C00082
:100600000830029055E74020E1E78020D5E7002040
:10061000D3E7361D02964CE762682846A1689047EA
:10062000206A401C44E7206AFEBD00005E6B0000AB
:10063000FFB51D460027FF4383B05C680020019092
:100640009E68A96904987F1C88470090296A88479A
:100650000028F6D10098401C0CD0032040028443AF
:10066000002E19DD600614D500982B2809D02D28FE
:100670000FD103E00020C04307B0F0BD012080028D
:100680000443A96904987F1C8847761E002E0090B9
:1006900002DD0098302803D00598002825D035E0E9
:1006A0000120A96940020443761E04987F1C8847F4
:1006B000002E009003DD782805D0582803D0059837
:1006C000002810D022E00598002801D010281DD164
:1006D0000120A96940028443761E04987F1C884744
:1006E0000090102002E0082000E00A2005900DE0B4
:1006F0000121059A49020C430199761E51430818BD
:100700000190A96904987F1C88470090002E05DDA0
:100710000599009801F044FB0028E9DAE96904989A
:100720008847A00502D40120C043A5E7E00722D1F5
:10073000600611D56005019800D5404229680A1D60
:100740002A600968220501D5087014E0220701D546
:10075000088010E008600EE02868011D296000682C
:10076000210502D50199017005E02107019901D504
:10077000018000E0016038467EE7000070B5044665
:10078000C068810713D0800601D5A56A04E0A1697D
:10079000606840182169451A204601F017FD0022C3
:1007A00006462946204601F041FC304670BD002037
:1007B00070BD70B5002802D0FFF7E0FF70BD0025C6
:1007C000074C6E1E08E02046FFF7D8FF002800D037
:1007D0003546206D44086400002CF4D1284670BDD5
:1007E00084F8FF1FF7B516460C46104600F06EF869
:1007F0002078611C61280AD0722802D0772839D16C
:1008000002E00125002404E00225042401E02D4D2E
:1008100008240222032301270878491C2B2806D02C
:10082000622807D02039C87F742807D008E01D430C
:100830001443F1E7042005433C43EDE71020044353
:100840000098214605F03CF8411C13D0002131618D
:1008500071600121F5604902F1617061200704D5E2
:1008600030460222002101F0E1FB306D3843306553
:100870003046FEBD0020FEBDF8B50D460646124CC2
:10088000206DC10704D0410804D044086400F7E794
:10089000224610E0542001F053F8070010D07908E8
:1008A000206D490001221143084354212065384638
:1008B00001F0B7FD3A4629463046FFF793FFF8BDF1
:1008C0000020F8BD0280000084F8FF1FFEB504463A
:1008D000466900690F4F0190E56800200090A80765
:1008E00007D0204601F072FC304604F0ABFF002830
:1008F00001DA3846FEBD280502D5019801F051F80D
:100900004C21204601F08DFD206D400840002065FF
:100910000098FEBDFFFFFFFF30B5441C03E00178E7
:10092000401C00290DD08107F9D10B4BDD0104C813
:10093000D11A91432940FAD0001B0A0603D0C01EE9
:1009400030BD001B30BD0A0401D0801E30BD09023D
:10095000FCD0401E30BD0000010101010346F0B58E
:100960000B439B072DD1244DEF01042A29D308C83E
:1009700010C95E1B9E43121F3E4017D0D8B2E1B291
:10098000401A3106014310D198B2A1B2401A310485
:1009900001430AD118022102000A090A401A310251
:1009A000014302D1180E210E401AF0BDA342DCD043
:1009B00018BA21BA884201D90120F0BD0020C043F5
:1009C000F0BD002A01D10020F0BD03780C78401C56
:1009D000491C002B0DD0A3420BD1521E09D0037825
:1009E0000C78401C491C002B03D0A34201D1521E9D
:1009F000EBD1181BF0BD000001010101134610B539
:100A00000446CAB219461002821810048218204601
:100A100001F0F6FC204610BD024670B50A4392076D
:100A20002AD11E4DEE0104C808C9541B944334401A
:100A300017D0D0B2D9B2401A2106014310D190B2DA
:100A400099B2401A210401430AD110021902000A86
:100A5000090A401A2102014302D1100E190E401A50
:100A600070BD9A42DFD010BA19BA884201D901206C
:100A700070BD0020C04370BD02780B78401C491C3B
:100A8000002A09D09A4207D102780B78401C491CF1
:100A9000002A01D09A42EFD0D01A70BD01010101A5
:100AA000002203098B422CD3030A8B4211D300236B
:100AB0009C464EE003460B433CD4002243088B4245
:100AC00031D303098B421CD3030A8B4201D39446D2
:100AD0003FE0C3098B4201D3CB01C01A52418309C5
:100AE0008B4201D38B01C01A524143098B4201D37F
:100AF0004B01C01A524103098B4201D30B01C01AAA
:100B00005241C3088B4201D3CB00C01A5241830823
:100B10008B4201D38B00C01A524143088B4201D350
:100B20004B00C01A5241411A00D2014652411046B0
:100B300070475DE0CA0F00D04942031000D3404225
:100B4000534000229C4603098B422DD3030A8B425B
:100B500012D3FC22890112BA030A8B420CD38901F9
:100B600092118B4208D3890192118B4204D38901DF
:100B70003AD0921100E08909C3098B4201D3CB011D
:100B8000C01A524183098B4201D38B01C01A5241D2
:100B900043098B4201D34B01C01A524103098B42D6
:100BA00001D30B01C01A5241C3088B4201D3CB00C1
:100BB000C01A524183088B4201D38B00C01A5241A4
:100BC000D9D243088B4201D34B00C01A5241411A7B
:100BD00000D20146634652415B10104601D34042A9
:100BE000002B00D54942704763465B1000D340425A
:100BF00001B50020C046C04602BD000070B5064CDD
:100C00007C44064D7D4403E0206800198047241D84
:100C1000AC42F9D170BD00005C6900006869000059
:100C2000F8B517460E460546002B07D01046584328
:100C30004419E41B2046B047A542FAD1284608389B
:100C4000F8BD00000246C80FC00781434B0030B515
:100C50004B405B009B0D20D01923DB06C9180123F4
:100C60001B05994220DB0324A40704251346AB404F
:100C70000BD3002B04D1EB0613409B00E34204D4BA
:100C800001246407002312195941FF231B059942CF
:100C90000BD2C9000143500F09E0CB0204D5014338
:100CA0000803024305D0054830BDFF21C9050843AC
:100CB00030BD084607210905884330BD0000C07FCC
:100CC000F0B50C46871A9C410D46861A9D4103D209
:100CD000C01BA141D21963410D0D1F0DC94EEC1B64
:100CE000AE435CD07F057F0D0026002F51D02D052F
:100CF000AC46A943DD020123ED0A1B051D43202359
:100D00001B1B24D41746E740381871412F46E74093
:100D1000CC199D402818314661410C0D27D1614402
:100D20009A4013D50023401C594152000ED140086F
:100D3000400001224B005205D34207D30520400753
:100D4000C14201D5B04900E0B0493046F0BD6B006A
:100D5000002A00D001229A181F23203C1B1B01D51A
:100D6000002302E0E540281871410C0DD7D0012482
:100D700024050919C407CD0740084908E40F284392
:100D80006144002CD5D00024401C61419A40D0D150
:100D9000CDE76A05520DD9D1C90FC907D5E79C4DDA
:100DA0004E00002801D0012400E0002434195F0027
:100DB000002A01D0012600E00026BE19954FAC4262
:100DC0000CD8AE420AD8B44206D001256D05EC42DB
:100DD000BCD010461946F0BD9942FCD000203946DF
:100DE000F0BDF0B51FB40C460F46811A9F41254651
:100DF000861A9D4106D20125ED076F40401ABC417D
:100E000052187B41210D1E0D8D1BAC467D4D8D432F
:100E10007ED075056D0D7CD00D05AE46AC431B0331
:100E20001B0B794D52429D41202366469B1B14D3D8
:100E30001746F740381800260090744160462F4648
:100E40000741E41900989D402818664116D4714660
:100E500071189A4025D5012320E093182A466A414B
:100E60005200002B00D0521C1E23203E9B1B002B47
:100E700061DD3541EE1728186641E8D50018764146
:100E80005B1C9A4000D3401C4B05F3181524E3402B
:100E900010D3002B52D071467118D30FC01802D353
:100EA000491C05B0F0BD0123DB079A42F9D1400887
:100EB0004000F6E701225205B21801D1002853D0B4
:100EC0000123CC0ADB029943891E002A08D1020CB7
:100ED00003D0020C0004103902E002460020203941
:100EE0000023550B05D112020823550B01D15201E5
:100EF0000D23550C01D112011B1DD50C01D19200FF
:100F00009B1C150D01D152005B1C2025EE1A01E03F
:100F10002CE022E00546F54015439840CA1AE10747
:100F200069181305C918002ABBDA032040070818FE
:100F3000C10FC9070FE071466118B2E7F107400819
:100F40000843711071444A000CD001235B059A429A
:100F5000A7D2C90FC9070020A3E74905490D26D12B
:100F6000002001E00028F4D100219AE7284D660016
:100F7000002801D0012100E0002171185F00002A43
:100F800001D0012600E00026BE19224FA94210D848
:100F9000AE420ED8B14208D001256D05E94206D017
:100FA0001946A802414010467BE79C4201D02146E9
:100FB00077E70020394674E710B50C465C4005D54C
:100FC0000124E4076340FFF70CFF10BDFFF778FE34
:100FD00010BD30B40C465C4004D50124E4076340E6
:100FE00030BC6DE630BCFCE670B50124E40761401E
:100FF0000D465D4002D4FFF763FE70BD6340FFF70E
:10100000F0FE70BDFF0700000000F0FF0000F07F61
:101010000000E0FF0000F87FF0B5F94D0C091E0953
:101020002C402E402F468BB0A7437DD0B543FCD03B
:10103000002E7AD0002CFCD00D465D40ED0F2543EC
:10104000AC1BFF25AD0464190894C502440DC90208
:101050002143500DDC0204430120C0070143044337
:10106000D2020191200C110C00958C4601042346FC
:101070008B430A9161460904E24D8A430991010AB2
:101080007D4449198039097805464D4301266D187C
:10109000F605751B6943C90C640B891C4C43641825
:1010A000B5012C1B250C2E04B4434C434D43210C9D
:1010B000691889090591009DE90701D00121C90737
:1010C00004912C4601996708CD072F434C08059DD4
:1010D000E10B4D432D0C29466646754302950D469E
:1010E00045432E46029D7D1BB44100950D465D4350
:1010F00001942C0C2F040D465543AE462D0C3D4358
:10110000029503947546049C2D04641B049406D236
:10111000029C039D641C002675410395029401AC5A
:1011200070CC009F7D1B01E03EE162E1B441090407
:101130000095079101940599A4086143090C0C4698
:101140004443650BE7040C4666467443A646640BAD
:101150003C43039502947446049DE4042C1B0494C0
:1011600006D2029C039D641C0026754103950294DF
:1011700001AC70CC009F7D1BB44101940C465C43D4
:101180000095650FE7000C465443A646640F3C43A8
:10119000039502947446049DE4002C1B049406D22B
:1011A000029C039D641C002675410395029401ACCA
:1011B00070CC009F7D1BB441AE09AF06049DC900F1
:1011C000AD092F43049DA406AD060495079D344345
:1011D00069180791059DE10B4D432D0C2946664684
:1011E000754302950D4645432E46029D7D1BB44135
:1011F00000950D465D4301942C0C2F040D4655437C
:10120000AE462D0C3D43029503947546049C2D0477
:10121000641B049406D2029C039D641C0026754145
:101220000395029401AC70CC009F7D1BB4410194E6
:101230008C050694079C890A611800950791019C0A
:101240000599A4086143090C0D464543680BEF045A
:101250000D46644665436C0B3C43049FED047D1BC7
:10126000AC4602D20025641C6841009E019D371BDC
:1012700085410846584301950C46460FC500544326
:10128000600F28436546E4002C1B02D20025401C59
:101290006E41019D3F1AB5412846BD09800628438D
:1012A0008446A009BF064E020699A4067618074395
:1012B000079D002068410A99079019430020099B67
:1012C00000906046FF1913434041E20F64003A4327
:1012D000A4460446D71A8C41A04203D901200090AD
:1012E00020463A46C70F941840416246D20F224327
:1012F000644664000494009CBE466400D71AA44669
:10130000044602978C417746002F01D1A04204D9B0
:101310006046401C8446029A2046C40FA646941894
:101320004041049A0546D20F224364466400D31A12
:101330008D417146002901D1A84202D928461A469A
:10134000641C10430122002800D0164361020020D3
:10135000079B891904465C410223002C02DB4918D3
:1013600013466441089DCE0A2D145D194B0567058F
:10137000E10A2C050D1908993E43C9076940002B65
:1013800008D0934006D30022761C5141002B01D196
:10139000760876001C4A002D43DB154241D0AA4353
:1013A0003FD030460BB0F0BD06180D464D41174CEE
:1013B0007642AC411AD395181C465C41134A6D42E3
:1013C000A24113D3012252054C00D4420AD15C0041
:1013D000D4420BD04B4002D592021143E2E74900C0
:1013E0004908DFE75940C90FC90718E0002008493C
:1013F000D8E7054801420DD10342F7D0F2E70000DB
:101400000000FF07B95F00000000F07F0000E0FF70
:101410000000F87F114859400143C01241400020AC
:10142000C0E70123089A9B069A4205DC0322520773
:101430008918C90FC907B5E7052252078918074A55
:101440001143D2125140ADE770B515461C46024615
:101450000B4628462146FFF7DFFD70BDFFFFFF7FEB
:10146000F0B58B4C0F09254689B0BD437BD01D09D3
:101470002646AE43FAD00E465E402740F60F3E4366
:10148000254071D024012142FBD0FF24AD19A404D2
:101490002D1B039501252D05DB02DB0AC9022B4319
:1014A000C90A29431E010901040F130F0501214335
:1014B0001701880B820391432D098C46A90B1E430B
:1014C0008A039543B30B9A0396433F09BA0B9403DF
:1014D000A74302962E467E430497B6464E19D71967
:1014E0000C460196544305977E43371B7646BF1B37
:1014F0003601B646BE0B361900967646BC0437193F
:10150000009C01D3641C00946400002F01D00126CC
:101510003443029E049F754366467E4304967600DC
:1015200034196E0034190094029C019E1C19664304
:10153000751BAE46069465464519059C05956C439A
:10154000594375460891691A0191049E0146514319
:10155000A41B0491611A009C0791E10605D0610962
:101560000122114302E072E06EE06109089D00274C
:101570002C0A2D066918049D7C412A0A2D0669183B
:10158000019D6241AC0DAD026D185441079A910D59
:10159000920255196141029A644658435443069B8E
:1015A000059A5A43121A131B9A0E9B015B187A4133
:1015B000010B0005C3185141220A200644195A4163
:1015C0009A4200D2491C01204002814203D31523D4
:1015D0000226F64302E014230326F6432020C51A10
:1015E000A9401746AF40DA400A4320460399D84045
:1015F0000914731819055118039A3843D20751403A
:10160000AC4009D00122944006D30022401C514135
:10161000002C01D1400840001E4A934212D30122FF
:1016200003989206904207DB0520400709181A48E4
:101630000143C012414004E0032040070818C10FD5
:10164000C907002009B0F0BD0020F107FAE705182E
:101650000C464C4111486D42A04115D394181A46CE
:101660005A410E48644290410ED301204A00400581
:10167000824209D35A00824206D35940C90F084A10
:10168000C90700201143DDE700200649DAE7000022
:101690000000FF07FE070000FFFFFF7F0000E0FFE4
:1016A0000000F07F0000F87F0121C90501234118E7
:1016B00042001B06D3185B0E0AD0C1100722D206C7
:1016C000891840075242D14201D55200891870470B
:1016D000090208D50146002A03D0C10FC90700201E
:1016E000704710467047420202D0002002497047FE
:1016F000072109050143F4E70000F87FF0B5FF2555
:101700002D04C609C209FF2704462E400137CB0924
:101710003E4348402A402B400746002A6BD0002B0E
:1017200069D0AA4267D0AB4265D0002800DA3246C1
:101730000125ED0529432C4309022002090AD21A8A
:101740004B0C7F24E31A434C000A7C44E35C7D2469
:101750002404121914145B00A218884201D3521CED
:1017600000E0400049420C465C4324115C43DB012D
:101770006415E318040A5C43C502200D0C4644437B
:101780006419250A5D432303EC0C0D4665430003F1
:101790000019EB184C42A34201D35B18401CD4053E
:1017A0002018002B07D05B00C91804D3401C002967
:1017B00001D1400840003F2189048A4209D3002A10
:1017C00008DC1106090F04D0032149074018C00F97
:1017D000C007F0BD01224100120689187F2252067F
:1017E0009142F6D205214907C84201D59010F0BDBB
:1017F000FF20C005F0BD002F00DA32461648AA428D
:1018000007D2AB4205D21902090E17D0F80FC00754
:10181000F0BDFF2563002D06AB42F9D84900A9426F
:10182000F6D8AB4201D1A942F2D0A94201D10021A0
:1018300001E061004908D0050843F0BD1102090E1E
:10184000FBD0FF200243D005F0BD0A4601461046FA
:1018500054E700006F5900000000C07F10B501463A
:101860009E240002CA15A307002A02D01843002AAA
:1018700004DBA21A002A0CDDD04010BD1206120EA5
:1018800001D140004008A21A03D4D04040420028B1
:10189000F3DDFF2248001206904201D9002010BD5E
:1018A000C817C043584010BD0102C21504D001231F
:1018B000DB071943002A0ADB9E239A1A02D4084642
:1018C000D0407047FF2241001206914201D900200A
:1018D0007047C017C04370471F22030C02D10F226C
:1018E00000041CD0030E01D10002083A030F01D1FD
:1018F0000001121F830F01D18000921E002801DB1E
:101900004000521ED205511802125118192290405F
:1019100004D3491C002801D14908490008467047F2
:10192000C10FC90700D04042012292071143D3E7FB
:1019300001218907D0E700000048704784F9FF1FA4
:1019400070B5064600F06AFE056830460B30C408E4
:10195000E400B44201D8002070BD68682A4600281F
:1019600018D00168A14211D30B46214608318B42A1
:1019700008D3436801194B6003681B1B0B6051605F
:10198000046001E041685160001D70BD024640687E
:101990000028E6D12146284600F04AFE0028DCD186
:1019A00070BD70B50446051F00F038FE0068002CBD
:1019B0001AD0446801E020466468002C01D0AC4293
:1019C000F9D301680A18AA4204D12A680546891881
:1019D000016000E0456028684119A14205D16168B5
:1019E000696021684018286070BD6C6070BD10B5DA
:1019F00000F018FE006810BD10B5044600F012FE9D
:101A0000046010BD70B5044685690068C10601D543
:101A1000302600E02026C00707D070BD626830463F
:101A2000A1689047206A401C20626D1EF6D570BDEB
:101A300070B5044685690078C00707D170BD62683B
:101A4000A16820209047206A401C20626D1EF6D5B8
:101A500070BD09684A0501D540B27047C905FCD57B
:101A600000B2704709684A0501D5C0B27047C90580
:101A7000FCD580B2704770B50C460546012A05D0EA
:101A80002878800600D5EA69002302E0012305E0FA
:101A90005B1C934202D2E05C0028F9D1A869E618E9
:101AA000C01AA861286AC01828622846FFF7AAFF52
:101AB00004E06A682078A968641C9047B442F8D3AF
:101AC0002846FFF7B5FF70BDFFB504460D4681B04F
:101AD000243000902168880604D51022E0699143E3
:101AE000216000E00120A84201DD471B00E0002743
:101AF0000498A1697A191018081AA0612078C00604
:101B000002D42046FFF77EFF002608E003986268B3
:101B1000A168805D9047206A401C761C2062049872
:101B20008642F3DB2078C0060AD52046FFF76AFF1D
:101B300006E06268A16830209047206A401C20625D
:101B400038467F1E0028F4DC07E000986268A16830
:101B5000405D9047206A401C206228466D1E002888
:101B6000F3DC2046FFF764FF2078000602D5022050
:101B700005B0F0BD0120FBE711680268006A53055B
:101B800001D5087009E0D30501D5088005E01306EA
:101B900002D5C21705C100E00860012070470000AF
:101BA00001694A1C02610878704700B58FB0029144
:101BB0000021059105490193794403911146049050
:101BC0006846FEF771FC0FB000BD0000E5FFFFFFA7
:101BD0000A681070521C0A6070470000084B70B50C
:101BE0000D467B44FFF7E1FF0446284600F022F94A
:101BF000002802D00020C04370BD204670BD000008
:101C00006B3E0000F7B50446154686B02B48784475
:101C1000002703C83E460090019111E007986A46EC
:101C20007100415A02A801F0AEF9411C07D0217899
:101C3000890603D5E269391891420ED83F18761CFF
:101C40002078800602D5E069B84206DDAE42E5DBC9
:101C500007987100405A0028E0D1A069C01BA0611C
:101C60002046FFF7CFFE154878445A3803C8009045
:101C70000020019116E041006A460798415A02A8E7
:101C800001F081F90590401C0AD0002505E062684A
:101C900002A8A168405D90476D1C05988542F6D367
:101CA0000498401CB0420490E5DB206AC019206211
:101CB0002046FFF7BDFE09B0F0BD00002E56000023
:101CC000F7B5D21D0025D20815A6D200F52905CA00
:101CD00011D0002A05DA00214042914111A60A469E
:101CE00008E0009909688B0701D50FA602E04907B3
:101CF00001D50EA601251146009F0024243704E0DB
:101D000000F0DFFC30323A55641C02460A43F7D13A
:101D10002B46324621460098FFF7D6FEFEBD000056
:101D2000000000002D0000002B000000200000003B
:101D300070B504460021243408E05507D2086D0F21
:101D4000303565545D072A43DB08491C15461D43A1
:101D5000F3D10468002310A2250708D5A40601D4F6
:101D6000002904D0C46901230CA2641EC461FFF7DA
:101D7000ABFE70BD10B5044621461068FFF772FE39
:101D8000002302462046FFF7D3FF10BDD21DD10825
:101D9000C9000CC9CCE700000000000030000000C2
:101DA0003A2800D23038202302469A43412A01D3F0
:101DB00010463738884201D30020C04370470000E6
:101DC00002685118137801601846704710B5D16049
:101DD0000549794451610549794411620021116135
:101DE000114600F0EFFE10BDEBFFFFFF61090000A0
:101DF0004268002A08D001680B78491C002B03D0E8
:101E0000521E06C0184670470121C160881E7047E7
:101E10004268002A0BD0C3680168002B07D1836891
:101E20008B4204D0491E521C06C00020704700207F
:101E3000C0437047C068802108407047F8B5054628
:101E40000C46C8680521C904884301218905084357
:101E5000E060800602D5204600F0DEF97149E068B6
:101E60000140022903D0204600F080F9BCE00521A2
:101E7000012249030140D20391420FD1C00306D58C
:101E80006168E06A884200D80846606006E0206920
:101E9000E0626060606903F0EBFCA061A168002271
:101EA000EEB200290EDAE06883050BD4C943A160C5
:101EB0000921226049030843E0606068411C6160B9
:101EC0000670ACE0E068012149030843E0600020AF
:101ED00020602069002831D1606903F0DDFC012514
:101EE00027462437ED02002816D0A0898005800FF0
:101EF00008D0E069FFF724FD0028206102D0E068E7
:101F0000284318E001202761E061E068032109020D
:101F10008843012189020DE0E069FFF711FD0028E7
:101F20002061EFD0E0682843E0608105890F03D18C
:101F3000FF2101310843E06020696060E2683A4FA8
:101F40002569D0051FD56168E06A884200D8084637
:101F5000411B05D02246284600F012F9002843D143
:101F6000E068010204D5E56200206560A06053E0EE
:101F7000691CE1626160E169491E3843A160E0606B
:101F800030462E70F8BD100201D53A4009E0606875
:101F9000411C61600670E06838430A2EE06006D09C
:101FA0000022E16A6068814203D90B4602E0012207
:101FB000F7E70346A7895B1B7F0504D4E7699F42C7
:101FC00001DD002A1ED0814200D801460F1A0020F0
:101FD000E5626560002BA06009DD224619462846AF
:101FE00000F0CEF8002802D00020C043F8BD002F3A
:101FF00008D0A069E5626560C01BA061E06810219F
:102000000843E060E068000209D56168A069E56204
:10201000491B40186560A0610120C043F8BD3046EF
:10202000F8BD00008210000000000100F8B5044671
:1020300016460D464769007B800730D0384603F0CE
:102040002BFC00282BD132461026002A25D0012A4D
:1020500002D0022A23D104E0204600F073FF451984
:102060001BE0384603F004FCE16831430028E160DE
:1020700004DA204600F07AF80120F8BDC9030BD538
:102080006268E16A914200D81146A2698918226902
:10209000891A814200DD08462D18002D01DA022040
:1020A000F8BDE16A6068E268814206D29103E062AD
:1020B00003D5012149048A433243A669AE4211DCAB
:1020C000E16A814201D90B4600E003469F1923696A
:1020D000FF1AAF4206DD814201D90F4600E00746F4
:1020E0009F4206D1202002430020A060A56220600C
:1020F0000DE0AD1BE669AE1B8142A66000D9084623
:10210000C01A281A206058196060202082430348B2
:1021100002400020E26040342072F8BDBFCFD7FFFC
:1021200070B5C468A50713D0650211D4D51FF93D59
:102130000AD0FF3D6D1E07D0FF3DFF3D022D07D1A8
:1021400001462431012305E0074E5D1EB54201D34F
:10215000012070BD0161C36141600F2109028C4300
:102160001443C460002070BDFFFFFF00C1688022DF
:10217000114392039143C160002181600160704767
:10218000F7B514460E463348D5685769054209D05D
:102190003846A16903F010FC002811DB2D48C0432C
:1021A0000540E5602B4632463846009903F018FC9E
:1021B0004200A1695208B21A89180028A16104D00E
:1021C0002046FFF7D3FF0020C043FEBD70B5044694
:1021D0000569C06A6168884200D80846E16805223E
:1021E000D2049143E160C90314D5A84209D0224624
:1021F000411B2846FFF7C4FF002802D00020C0433F
:1022000070BDE56200206560A060E06801210904FE
:102210008843E060002070BD10B50446C0682021EE
:102220008843E060A16AA06988420ED02046FFF78B
:10223000CDFFE06803210903884310210843E060D3
:10224000A06AA0612069E06260600349E06808401C
:10225000E06010BD10000200BFBFFFFF10B5434893
:10226000542100F0DEF84248542100F0DAF84148E9
:10227000542100F0D6F840483C493D4B404A0160AB
:102280003E4803603B4810605A1C0A65411C1965B2
:10229000012101653C48354A3AA17844FEF7A2FA8B
:1022A000002804D1384878440C3800F092FE3848B1
:1022B0002F4A36A17844FEF795FA002804D1344815
:1022C00078440C3800F085FE32482A4A2FA1784421
:1022D000FEF788FA002804D12E4878440C3800F024
:1022E00078FE40232148DC0000212246FFF718FF3A
:1022F000002804D0244878445C3800F06AFE1C486A
:10230000224640230021FFF70BFF002804D020487D
:1023100078445C3800F05DFE164822461023002108
:10232000FFF7FEFE002804D01A4878445C3800F01D
:1023300050FE10BD0F4870B5006D44080B48640096
:10234000FEF7C4FA0A48FEF7C1FA0A48FEF7BEFAD9
:1023500009E0206D450820466D00FEF7B7FA2046DB
:10236000FFF71FFB2C46002CF3D170BD84F8FF1F34
:10237000D8F8FF1F2CF9FF1F9CF1FF1FA0F1FF1FD2
:10238000A4F1FF1F72000000764C000077000000EF
:10239000634C0000514C0000F8B50646FFF7CCFA3C
:1023A0000090054615E0002E02D0E068B0420FD143
:1023B000206828600098A168076860688847204600
:1023C000FFF7EFFA00980068B84202D00098E8E7FB
:1023D00025462C68002CE6D1F8BD10B500F000FEB3
:1023E00000F0F1FD10BD01E004C0091F0429FBD27B
:1023F0008B0701D50280801CC90700D0027070478E
:1024000000290BD0C30702D00270401C491E0229CC
:1024100004D3830702D50280801C891EE3E70022D3
:10242000EEE70022DFE701468008081A02091018CB
:10243000020A1018020C1018C0088200121852006C
:10244000891A01E0401C0A390A29FBD2704710B5ED
:1024500000F0DEFD10BD0000F8B5224C4E00069DD8
:10246000A6420AD8A64201D1002806D15E00A642A3
:1024700003D8A6420AD1002A08D00D2424042542FC
:102480002CD02946002000F0FBFDF8BD0C461C4373
:102490000CD4994202D0EFF30080F8BD904202D0F4
:1024A000EFF30080F8BDEFF30080F8BD09242407A6
:1024B000E5008B4206D0EFF30080A043591A06D204
:1024C000284304E0101A05D3EFF30080A04380F303
:1024D0000088F8BDEFF30080A043F1E7009500F01D
:1024E000E7FDF8BD0000E0FF10B5FF231B06440028
:1024F0009C421DD84C009C421AD80346124A0B43FA
:1025000007D4401A02D3EFF3008010BDEFF3008030
:1025100010BD081A06D2EFF3008001219043C907CD
:10252000084302E0EFF30080904380F3008810BD81
:102530000D231B041A4204D01146002000F0A0FD18
:1025400010BD00F0BFFD10BD0000009070B5024648
:1025500001020123C01520249E26DD07002802D099
:102560002943002813DB361A002E29DD0846F040E7
:10257000A21B01D4914000E04908002906D09940EF
:1025800000D3401C002901D14008400070BD000666
:10259000000E01D149004908361A11D40846F0400E
:1025A000404200280CDCA21B01D4914000E0490805
:1025B0000029EBD0CA0F490000D11843801A70BD22
:1025C000FF2150000906884201D9002070BDD017B4
:1025D000C043684070BD000010B5FF22C30D13401A
:1025E00009D05A4007D0914205DA5C42A14202DD8F
:1025F000C905081810BDC40FE407002B06D0002A37
:1026000006D0002902DBFF20C0050443204610BD90
:102610004102FCD0004810BD0000C07F0048704758
:1026200088F9FF1F004870478CF9FF1F70477047FB
:1026300038B504460A460020694601F03BF90028F7
:1026400005D002462046009900F05AFD012038BD11
:1026500010B5012001F01CF910BDF8B501F01EF90C
:10266000054600200C461020C0460646A819A04288
:102670000DD932466946002001F01CF9070001D14E
:1026800001F006F90098A04200D00546C419FFF7F2
:10269000C5FFF61D07460560F008C000461928462C
:1026A00000F008F8B44204D031463868A21B00F0AC
:1026B00027FDF8BD00210160416080607047102057
:1026C00070470B4670B502468907800808431946D3
:1026D0009D08141AA94125090807054308092C1962
:1026E0004841250A01060D43010A2C194141200CDD
:1026F0000D0428430D0C00194D41002140194D4196
:10270000C00869070843E908840F8D002543840049
:1027100024184D4124196D41121BAB4107E00925D6
:10272000ED432C11521963410024401C61411C46A9
:102730000A250026551BB441F1D270BD10B50446E0
:1027400000F0CEFC0068005DC007C00F10BD0000A7
:102750007047FFB50C461E468FB003CA089009911A
:102760004F007D0D00D16D1E002108460020C0469F
:102770000321099A89050840002A03DA820080189B
:1027800040080840800D01280A9002DD0020C04367
:102790000A90089807430DD0F048F149281848439B
:1027A0000714189800281DD07542291E1DDD0A98AF
:1027B00042421BE01898012802D00020302104E09A
:1027C0000020F24305E02154401CB042FBDB3046C0
:1027D0000022189B002121540F998B600A604860E9
:1027E00013B0F0BDBD1B6D1CDFE70A9A002900DAAB
:1027F00069420BA800F0E2FC0BAB07CB03AB07C3AD
:102800000899099800F046FD6B4607C30146D54874
:102810000918002D00910BDDD24903980A9A49420C
:102820004018002303A90390684600F0A3FF08E0C6
:1028300003990A9A0023081803A90390684600F038
:1028400043FF6B4607C30004000C03D00020C043C5
:10285000410800E01046189A002A03D00022009296
:1028600015461EE0751E05D4FFF72BFF303262556A
:102870006D1EF9D501220843079602D000227F1C65
:1028800004E02078302801D100227F1E002A06971C
:1028900087D01EE0112D07DAFFF713FF30326255A3
:1028A0006D1C02460A43F5D1084303D00098002866
:1028B00019D00EE00021681E05E0235C625C6354C1
:1028C0002254401E491C8142F7DBA81B401E07957D
:1028D0000690079A18990020A0540F98079B069A13
:1028E00081600CC07CE711260020189059E7D21DAA
:1028F000F0B50D460446D10893B0C90003C90C9049
:102900000D9102F0CBFE02460D98C00F01D02D2094
:1029100007E02068810701D52B2002E04007C00FA7
:102920004001032A0F9001D0072A05DB0346294600
:10293000204600F0FFFB0EE12078800601D5E76914
:1029400000E006272846652D04D0662814D0672DA0
:1029500069D12DE00020112F009001DB112300E050
:102960007B1C0CAA03A910A8FFF7F3FE11990026FF
:1029700010987D1C0E9142E001203B460CAAC00736
:102980000B900120009003A910A8FFF7E2FE119D13
:1029900012981099002600280E9501D1781C0D1868
:1029A000781B02D446427D1C761EE81B00903AE05C
:1029B000012F00DA01270020112F009001DD1123E3
:1029C00000E03B460CAA03A910A8FFF7C2FE11992C
:1029D0003D46109800260E91217809070BD40E99D8
:1029E000A94200DA0D4603A9012D04DD4A19203A57
:1029F000D27F302A06D0B84201DA011D04DA012163
:102A000000910FE06D1EEFE7002802DC86192D1AF9
:102A100003E0411CA94200DD0D46801B401C0090D4
:102A20000120C0070B902078000705D40098A84229
:102A300002DB0020C043009069460020C8720B985A
:102A4000012102AF0337C907884225D00220109028
:102A50002B2011900B9800280BDA40420B902D2070
:102A6000119006E00B98FFF7DEFC30317F1E0B90D3
:102A700039701099481E00291090F3DC0B9800283B
:102A8000F0D111987F1E38702088000501D54520AF
:102A900000E065207F1E387001A8C01BC01D0B9090
:102AA0000F98002800D0012041190098C01709187C
:102AB0000B980818A169081A401EA0612078C0066A
:102AC00002D42046FEF79EFF0F98002805D06268CA
:102AD000A1689047206A401C20622078C00625D556
:102AE0002046FEF78FFF21E0002E07DB0E98B04254
:102AF00004DD03A86268805DA16802E06268A168E5
:102B000030209047206A761C401C20620098401EAE
:102B1000002800900AD100F0EBFAC06862680168F2
:102B2000405CA1689047206A401C206228466D1EC8
:102B30000028D9DC07E062683878A1687F1C9047DC
:102B4000206A401C20620B99481E00290B90F2DC81
:102B50002046FEF76DFF032042E6000001FCFFFF68
:102B6000104D0000E1DFFFFF10B54369002B02D0DC
:102B7000C046C04601E0FEF77EFF012010BD12787E
:102B8000014624310A7000224A700122ECE71168E4
:102B90000022D243E8E710B54369002B02D0C046BB
:102BA000C04601E0FFF72EF8012010BD1288014653
:102BB000243182840022C2840122ECE711680022C1
:102BC000D243E8E7F3B50C468FB000200C9001200B
:102BD00000260E9008460C3003906269039801218C
:102BE0009047051E2ED0252D2DD0216A884700281C
:102BF00018D06269039801219047216A884700280C
:102C0000F7D16269411E0398904700E0761CA169E4
:102C10000F988847216A88470028F7D1E1690F9803
:102C20008847DAE7A1690F988847A842074601D18B
:102C3000761CD2E7E1690F9888477F1C02D10C9877
:102C4000002877D06BE16269039800273D4639463A
:102C500090472A280CD162690398012190470125E9
:102C600006E00A214F433F18303FEBD410200543C4
:102C70006269039801219047014630390A2903D23D
:102C8000AC498F42DEDCECE7E90600D4AA4F6C28A1
:102C90000AD04C2810D0682824D06A282ED0742856
:102CA0000CD07A280AD00DE0626903980121904780
:102CB0006C2823D004211CE020200543626903987E
:102CC00001219047A760652865604FD026DC582811
:102CD00039D01ADC452849D012DC252834D04128C7
:102CE000B0D143E06269039801219047682802D07F
:102CF00008210D43E6E70120C002DEE70220DCE701
:102D0000462833D047289DD130E05B2870D0612819
:102D10002CD063286CD0642894D161E06F284FD008
:102D200009DC662822D0672820D0692826D06E28A2
:102D300017D12EE0EFE070284DD073286FD07528A2
:102D40004ED078280DD154E0A1690F9888472528E6
:102D5000054600D16CE7E1690F9888476D1C00D1EA
:102D60006DE7DCE00A224CE00A2252E00120234613
:102D70006A460F99C043C046C046C5E04021284678
:102D8000234608436060A80701D5002239E00022ED
:102D90003FE0E80700D020E72068011D21600068BF
:102DA000290501D5067018E7290701D5068014E723
:102DB000A90703D5F117066041600EE706600CE72E
:102DC00040212846234608436060A80701D5082211
:102DD00017E008221DE0594928460840606016E0C7
:102DE00040212846234608436060A807BCD5B9E7C0
:102DF00015E04021284608436060A80707D5234610
:102E0000102201200F99C043C046C0467CE010222A
:102E1000234601200F99C043FDF70AFC74E000210E
:102E200063280B460191009102910D9102D05B281D
:102E300007D03BE0E80601D40120A060012000900B
:102E400034E0E06801210D906269039890475E28A4
:102E500007D101200190E06801210D90626903987B
:102E600090472169002906D10B4604AA8F00491C0E
:102E70000829D351FADB002851D02169002926D036
:102E80000298401C029062690398012190475D28D6
:102E9000F1D10198002808D0002004AB8100401C2B
:102EA0005A58D24308285A50F8DB04AB206900284E
:102EB00020791CD04007029A00980D9B0092224670
:102EC00002901F480F991DD5C046C0461CE0C1178F
:102ED000C90E09184A114909930004AA9A18490110
:102EE000411A13680120884003431360CBE7400771
:102EF000224613480F9902D5C046C04604E0C0469A
:102F0000C04601E0C046C04600280ADA401C06D18F
:102F10000E98002803D00020C04311B0F0BD0C98DB
:102F2000FBE7E90702D10C99491C0C9136180020E7
:102F30000E9052E6CCCCCC0CFFFFFF7FF1F7FFFFE9
:102F4000FEFFFFFF10B50146C268900703D0900650
:102F500007D5886A0AE0FFF765FB01210160881E3A
:102F600010BD8B694868C0180B69C01A40310B7AD4
:102F7000002B02D0497A401A10BD1103FCD500285D
:102F8000FADD401E10BD70B516460C46054600F031
:102F9000A7F80368FF200230C05C012807D0FF2C8F
:102FA0000ED8185D00280BD001202C7070BDFF33A7
:102FB0003246214608331868C3182846984770BD22
:102FC0000020C04370BD10B5002801D000F082F889
:102FD00010BD10B500F042FCFFF7F5FF10BD00007A
:102FE00010B5002102A000F01FFC012010BD000060
:102FF0005349475056464E3A2050757265207669BF
:10300000727475616C20666E2063616C6C6564001F
:1030100010B500F00EF80169002903D0002202610A
:10302000884701E08068804700F0F4FB10B500F0AD
:10303000F1FB70B500F060F804680546002C15D16E
:103040002020FEF77DFC040012D0002009492C60EE
:1030500003C4094921602071A060E0600749206134
:10306000083C002901D000F041FCE061204670BD21
:1030700000F0D0FB000000002D3000000000000038
:10308000C80212D54803400F002804D0C803C0432B
:10309000012188407047EFF30080000100090321FF
:1030A0000907084380F3008870470020704700003C
:1030B00010B500200249029A00F039FC10BD000052
:1030C0000000F87F10B5024800F031FC10BD000090
:1030D0000000C07F01491820ABBEFEE726000200B9
:1030E00010B500F005F8001D10BD00BFFD3900004F
:1030F0000048704790F9FF1F00487047A4F9FF1F70
:1031000010B50346406801E003464068002801D03E
:103110008842F9D31868C3188B4206D0CB1CD80854
:10312000C000001D411A521A0146081D0A60FEF730
:1031300038FC10BDF8B51F46044601230068DB02C9
:10314000032601461840072A05DB002801D017A5F1
:1031500006E017A504E0002801D016A500E016A59A
:10316000102081432160A069C01E002FA06101D002
:10317000401EA0612046FEF745FC002F09D03846CE
:103180006268A1689047206A401C2062C01C2062CF
:1031900006E0206AFAE762682878A1686D1C90470B
:1031A000761EF8D22046FEF743FCF8BD4E414E0095
:1031B0006E616E00494E4600696E6600F7B51646B0
:1031C0008AB0334878446C4603467C33C06F5A68F3
:1031D0009B680DC42E487844763003AC0DC80DC4EE
:1031E0003720C001081837211B30FDF763FC054666
:1031F0000C46803D1B3C02D56442012000E00020CB
:103200000027099010E0E0070CD00C2020497843FB
:10321000794432464C3941186846012300F054FA8B
:103220006B4607C364107F1C002CECD1184F7F4401
:103230002E3F16E0E80712D02001C0190EC80691F3
:10324000089307920068F04201D19819089032461D
:10325000012306A903A800F037FA03AB07C36D10DA
:10326000641C002DE6D10998002806D03246694634
:10327000012303A800F07EFA05E0012332466946E7
:1032800003A800F021FA0A9B07C30DB0F0BD0000AF
:1032900080400000034640000A4610B5400D0BD0A8
:1032A0000121C9070F24A40200191C03640821434B
:1032B000540D2143D20207E000210120F2E7D40F90
:1032C000490021435200401E0029F8DADB0FDB07DA
:1032D000184310BDFFB50D46144685B048685168C7
:1032E00002F0B6F900910190A868A16802F0B0F967
:1032F00002910390A868616802F0AAF9029A121874
:103300008242029201D2012000E00020019A0B18B3
:10331000D2180028019202D08A4202D903E08A42E0
:1033200001D2012000E00020009908180090686890
:10333000A16802F08DF9029A12188242029201D21B
:10334000012000E00020019A0B18D21800280192F9
:1033500002D08A4202D903E08A4201D2012000E071
:103360000020009908180090286821684000490052
:10337000400849084018FA49471814E001994000EC
:10338000C90F08430090019802994000C90F0843F3
:103390000190029803994000C90F084302900398D6
:1033A00040007F1E039000980028E7DA0898002864
:1033B00001D0EC4E00E00026B74201DA012000E027
:1033C0000020002804902AD0F71BF806C00E15D064
:1033D000029B2021091A039A8B401A430392029AF6
:1033E000019BC2408B401A430292019A009BC2404B
:1033F0008B4000991A430192C14000917B110DD07E
:103400006F460320C11A03D500218200B95003E0A2
:103410008A008100BA587A50401EF3D53746039887
:103420000299002800D00120014308980291002849
:1034300008460CD0002800D001200199019A4905C6
:1034400008430121D20AC902D202019200E00121FF
:103450000E9B0122D207012B02D0002B03D013E0D8
:10346000002807D120E0904204D890420CD1019B63
:103470000B4209D0019B5918019105D10099491CB3
:10348000009101D17F1C009200280DD01021084628
:103490000020C0460498002806D00F98002803D0CA
:1034A000082108460020C04628682168019B009A30
:1034B0004840C10F0598C90739430EC009B0F0BD97
:1034C000FFB587B0099A08980899536892684068D0
:1034D000896896460022039317469446089A126814
:1034E0005300099A5B081268520052089A1A9E4BC0
:1034F000D4180A9A002A01D0352200E04022069210
:103500000022012315460492DB07059324E0002DD9
:1035100005D175460346039E4D1BB34109D375463D
:103520006646039B491B049D9841059B7519AC4653
:103530005F4163463B4308D0059B049EDD07760848
:103540002E435B080496059301E0521E641EC50FCE
:10355000ED0749184041521C069B9A42D7DB002DCB
:1035600004D17546039A6B1A824101D203200CE004
:10357000039A0B466B404240134303D0014303D0F0
:10358000012002E0022000E00020614601910021BC
:10359000009702910A99002905D061464002014333
:1035A000704B019102E08007002302909C4201DAF7
:1035B000012000E0002007003AD01A1BD006C00E00
:1035C00015D0029D2021019C091AC5408C4025433D
:1035D000029C8C4000D001242543019C0295009D53
:1035E000C4408D4000992C430194C1400091541176
:1035F0001DD06D460221002202290CD10320001BA0
:1036000007E0002804DB8600AE59002E00D001221E
:10361000401C0328F5DB081B02D588002A5004E073
:103620008000285810438A00A850491EE3D51C4644
:103630000A98002802980CD0002800D00120019997
:10364000019A490508430121D20AC902D202019216
:1036500000E00121109B0122D207012B02D0002B98
:1036600003D013E0002807D11FE0904204D8904215
:103670000CD1019B0B4209D0019B5918019105D136
:103680000099491C009101D1641C009200280CD0C3
:10369000102108460020C046002F06D011980028AF
:1036A00003D0082108460020C04608980999019ACD
:1036B000009B006809684840C10F0798C90721436B
:1036C00082600AC00BB0F0BD00B585B001930092D6
:1036D0000A460146002302A8FFF7FCFD02A807C81E
:1036E00005B000BDFFB50A461F4685B00799019396
:1036F00001230091014602A8FFF7ECFD029903980F
:10370000049ECA0F4900D20700920F224908920274
:103710008C1A0021002800DB0C46450013486D0878
:10372000844214D3079A002A04DA441E0026104D5E
:10373000F64302E004460D460E46102108460020DE
:10374000C046002F03D0042108460020C0462005B3
:10375000E90A0843009908436905F20A1143ADE6F6
:1037600002C0FFFF013C0000FF3F0000FF07000018
:10377000FFFFFF7F00B585B0019300920A46014626
:10378000002302A8FFF79CFE02A807C8A8E7FFB520
:103790000A461F4685B0079901930123009101460F
:1037A00002A8FFF78DFE02990398049ECA0F4900F4
:1037B000D20700920F22490892028C1A0021002899
:1037C00000DB0C46450011486D08844214D3079A6B
:1037D000002A04DA441E00260D4DF64302E004469A
:1037E0000D460E46102108460020C046002F03D08B
:1037F000042108460020C0462005E90A0843009934
:1038000008436905F20A114358E60000FF0700006B
:10381000FFFFFF7F10B5002000F0BFF8C046C04694
:103820000120FFF757FC10BD70B505460C460A2075
:1038300000E06D1C00F0AAF8002D06D028780028C2
:10384000F7D102E0641C00F0A1F8002C02D020782F
:103850000028F7D10A2000F099F870BD10B5014694
:1038600002A0FFF7E1FF012010BD000053494752BD
:10387000545245443A2052656469726563743A2033
:1038800063616E2774206F70656E3A20000000003F
:1038900010B500F089F8FFF796FB10BD01226946CC
:1038A000114B120382188A421A6001D811467047E0
:1038B0001960704770B50C4C6D46012636032368BD
:1038C000AD1B9A18AA420ED8AD1A9019EE0F7519B1
:1038D0006D10AA18904200D91046C01D0B60C20896
:1038E000D200D01A226070BDA8F1FF1F10B5882049
:1038F000FEF726F8002801D00021017010BD8029B4
:1039000004D8002802D00178002901D00020704797
:103910000121017008307047002803D002460832A8
:10392000914201D00020704700210170704710B50E
:103930000C461107090F092904D00A290AD00829C1
:103940000CD104E011460820FFF79AFB06E051066F
:1039500006D501E0510601D50120C007214610BD62
:10396000D10607D501010909CC084907000E000658
:10397000044309E0410F20024907000A0143200ED9
:1039800000061D22D14101430846E7E708B5694614
:1039900008700320ABBE08BD704710B500F02CF8CE
:1039A000FFF711FB10BD000010B5012805D0002164
:1039B00003A0FFF739FF012010BD09A1F8E70000BF
:1039C00053494752544D454D3A204F7574206F6608
:1039D0002068656170206D656D6F72790000000070
:1039E0003A2048656170206D656D6F727920636F54
:1039F000727275707465640010B5002102A0FFF743
:103A000013FF012010BD0000534947414252543A70
:103A10002041626E6F726D616C207465726D696EAB
:103A20006174696F6E00000010B502F0FFF902F0DA
:103A300099F810BD10B5042101F0BEFD10BD0000C5
:103A400060490988012909D0022917D0032925D006
:103A5000042945D05C490969C8B2B0E05A490969EE
:103A60005A4A11805849C96810229143564AD16078
:103A70004C2111600221534A1180A0E0524909698A
:103A8000524A51805049C968102211434E4AD160B0
:103A90004421116003214B4A118090E04A49096991
:103AA0004B4A118002214B4A5160002001E0411C29
:103AB000C8B23228FBDB8021464A403A916000219F
:103AC000454A1170454A117004213E4A11803E4911
:103AD000C968102211433C4AD160462111606EE052
:103AE0003D490978802932DA3C49097800290ED10C
:103AF00035490969384A12785200394B1B68995286
:103B00004721314A11600121344A117056E02E4993
:103B10000969314A12785200324B1B68995246218A
:103B2000294A116000212D4A11702B490978491C3E
:103B3000294A11700221274A9160002001E0411CAE
:103B4000C8B23228FBDB0221224A516036E0022152
:103B5000204A5160002001E0411CC8B23228FBDB42
:103B600002211C4A91600021164A11801E490978E1
:103B700000290FD101211C4A11701C49184A1160FB
:103B80001B49184A11601B491B4A11601B491C4AFA
:103B900011600EE00021144A11701649104A11609C
:103BA0001649104A11601149134A11601049144A0C
:103BB000116014490978491C124A117000BF00BFF6
:103BC00070470000ECF0FF1F00B00340E6F0FF1F5D
:103BD000EAF0FF1F00F10F40EEF0FF1FEFF0FF1FB4
:103BE000D0F0FF1FD4F0FF1FD8F0FF1FACF2FF1F73
:103BF000ACF4FF1FACF1FF1FDCF0FF1FACF3FF1FA5
:103C0000E0F0FF1FE4F0FF1FF0B50B4F8446BB68E8
:103C1000B86800280AD109481E46034600229400CD
:103C20003559521C1D51302AF9D3B86060468000C6
:103C3000C0180164F0BD000000ED00E000F0FF1FBF
:103C40001E48002202601E48816B431519438163A0
:103C50001B491C48403148601B4883681B490B4086
:103C60008360C3680B40C3601949892008701948F4
:103C7000242141709A210170C178C906C90EC17012
:103C80000121017142718179C906FCD4817909074A
:103C9000890F0229FAD14021417181790907890FE1
:103CA0000229FAD181794906FCD51A21017081795E
:103CB0000907890F0329FAD17047000000810440E9
:103CC000008004400000011040900440FFF8FFFE17
:103CD000005006400040064015480068802108401A
:103CE000002804D0124800680843114908601148B0
:103CF00001880F480161104801880D4881618020CA
:103D00000E49486001200E4908800E48C068102105
:103D100088430C49C8604D2008600B480068401C6F
:103D2000002804D008480068401C07490860704714
:103D300000900340CCF0FF1FCEF0FF1FC0F00F40FB
:103D4000ECF0FF1F00B00340F0F0FF1FF0B585B0AE
:103D50000446002C17D117490888FDF7E9FD0746EE
:103D6000FDF7A2FC0022144B01910090FDF754F9DD
:103D70000022124B03910290FDF71EF90546FCF755
:103D800061FF05B0F0BD0B494888FDF7D1FD07463E
:103D9000FDF78AFC05460022074BFDF73DF900229E
:103DA000064B01910090FDF707F903910290FCF793
:103DB00049FFE6E7E6F0FF1F00FE9FC00000F03F6E
:103DC000F8B505460E46174600201B4908801B49DA
:103DD000088002242CE01A480068FDF73FFD00B27D
:103DE0006100695E88420CDC14480088062808DA05
:103DF00012480088345411480088401C0F4908803C
:103E000014E010480068FDF729FD00B26100695E0A
:103E100088420BDB08480088062807DA0648008835
:103E20003C5405480088401C03490880601CC4B20B
:103E30007D2CD0DBF8BD000060F1FF1F62F1FF1F99
:103E400068F1FF1F64F1FF1F10B5054800680028E6
:103E500004D104220821034802F082FC10BD0000B6
:103E600070F1FF1F78F1FF1FF8B505460F461646A3
:103E70000FA1104801F02AFA0FA10E4801F026FA0E
:103E80003C4610E0B44206D160002A5A0BA1094812
:103E900001F01CFA05E060002A5A0AA1054801F069
:103EA00015FA601C84B2701C8442EBDBF8BD000084
:103EB0000D0A000070F7FF1F4C3A000025750D0A2F
:103EC0000000000025752C00F8B505460F46164683
:103ED0000FA1104801F0FAF90FA10E4801F0F6F910
:103EE0003C4610E0B44206D160002A5A0BA10948B2
:103EF00001F0ECF905E060002A5A0AA1054801F03A
:103F0000E5F9601C84B2701C8442EBDBF8BD000054
:103F10000D0A000070F7FF1F4C3A000025750D0ACE
:103F20000000000025752C0070B506463046FDF7F0
:103F3000BBFB04460A4A0B4B02F0ECFD01D20A4ED1
:103F400009E03046FDF7B0FB0446084A084B02F092
:103F500013FE00D2074E3146002000F063F870BD1A
:103F600048E17A14AE47E1BF713D0ABF0AD7A3709A
:103F70003D0AD73FEC51B83E1CB5044600200190E5
:103F800000900220002804D0012806D002280ED17B
:103F900007E00A480190009009E00948019000906C
:103FA00005E02246694601A800F0F6FC00BF00BF0C
:103FB0000099019800F03AFB1CBD0000CDCC0C3FED
:103FC0009A99993E0FB51548C06B0121C90608435F
:103FD0001249C863542168460170072141700021CD
:103FE0004180491E4180582181710421C171002006
:103FF00003905F21684601726946094800F0FEF9A6
:10400000074800F04DFF1821684681710021C171F9
:104010006946034800F0F2F90FBD0000008004403B
:1040200000B00340F0B58DB007460C461B48006851
:10403000FDF73AFB09910890184801681848006894
:1040400002F0F8FE0546FDF72FFB0591049020468F
:10405000FDF72AFB05460022124BFCF7ADFF0022BC
:1040600001239B0701910090FCF7D6FF039102907A
:10407000059B049AFDF7F4F907910690099B089AAD
:10408000FCF79AFF0B910A90FCF7DCFD01460C90BF
:10409000384600F0E9FC0DB0F0BD0000C0F0FF1F95
:1040A000C4F0FF1F0000F03FF3B587B00D460024B9
:1040B00043E0002061006852042C01D3271F00E078
:1040C00000277B2C02D8201D069001E07F2006905F
:1040D0007B2C06D80698C01B401C0921081A0590A5
:1040E00001E0002005903E461DE072000799885AC5
:1040F000FDF71EFCF21B0190059810188000114A74
:104100001158019802F006FE61000390685AFDF70D
:104110000FFC0290039902F063FD0490FDF7C4FBCD
:1041200061006852761C06988642DED96000285AE3
:104130008100401861006852641C802CB9D309B01A
:10414000F0BD0000B4F7FF1F00B51848806B1F21B9
:104150004902084315498863FF20413014494861EA
:104160008815086113494863124940314860104975
:1041700040398860C86008614861FF2041300E49BD
:10418000086248628862C862012040050B494861A4
:104190000F2000020949C0394861002000F0B8FB37
:1041A000012040050549886000BD000000800440F2
:1041B00040D0044000B0044000A0044000F10F4093
:1041C000F8B50020274908702EE00121890708462C
:1041D00001F019FA01218907009002F09BFD0646C3
:1041E00020480078FDF7A4FB01218907009001F029
:1041F0000AFA0121C907484007463146FDF77EFA11
:1042000005462946184801F0FEF90446174902F010
:1042100081FD14490978091D8900154A505011483B
:104220000078401C0F4908700E4800780428CCDD47
:1042300000200C49087010E00A4800780821081A8C
:1042400080000B490858074909788900084A5050EE
:1042500004480078401C034908700248007804288C
:10426000EADBF8BD6DF1FF1F4DF82D405AF0A23C7E
:10427000B4F7FF1FFFB583B00E461D4631680598A1
:10428000016000204F4908704F480088002866DD13
:104290004E480088002862DD00242DE0002725E03C
:1042A000E95D0C98005D081A04281DDBE95D0C9897
:1042B000005D081A0C2817DCEA5D0C99095D50189E
:1042C000FDF72EFB012189070290FDF717FA3D4902
:1042D000097889003E4A50503A480078401C3949D4
:1042E0000870012103980170781CC7B23648008815
:1042F0008742D5DB601CC4B2344800888442CDDBE1
:10430000002427E0002C04D1A00031490858306077
:104310001EE0621E92002E4B9958059A106802F01A
:1043200089FD019001F06AF90746A200284B9958CF
:10433000059A106802F07EFD019001F05FF93946A0
:10434000029002F0BDFC03D2A00021490858306061
:10435000601CC4B21B4800788442D3DB2FE01A48AB
:104360000088012818D119480088002814D116485F
:104370000088401E285C06280EDD0D9800280BD012
:1043800011490988491E695C881FFDF7C9FA306028
:1043900002210398017012E00B48008800280BD11D
:1043A0000A480088012807D108480088401E0C9957
:1043B000085C7A2800DA00BF00210398017000BF72
:1043C00007B0F0BD6CF1FF1F62F1FF1F60F1FF1F2E
:1043D000D8F7FF1F00200CE08100074A5158491C04
:1043E000002905D081005158491C8200024B995088
:1043F000401C0428F0DB704760F7FF1F0A788260DA
:104400004A78C2604A8882618A88C2618A79026277
:10441000CA7942620A7A02604A7A426070470000B2
:10442000C206D20E01219140014A1160704700007E
:1044300000E100E0F8B506460D4614463948806BA9
:1044400001218902084337498863374804602146BF
:104450003046FDF753F93549086021462846FDF7F7
:104460004DF9334908602F48C06B01214906884344
:104470002C49C863084640680121090408432949BA
:10448000486008464068032109068843254948607A
:104490000846406801210906084322494860084649
:1044A000C06B0121490608431E49C8630020214909
:1044B000086020498031486006201E49086008468F
:1044C0000068402108431B4908601B4909688809A6
:1044D000FDF72EFA009014480168009802F01AFCCB
:1044E0000746FDF7E1F9134988602820C8602821B4
:1044F0001048416100210846FFF794FD002101208A
:10450000FFF790FD0B48006808210843094908603F
:104510001220FFF785FF0320000208490860486069
:10452000F8BD000000800440C8F0FF1FC0F0FF1F6E
:10453000C4F0FF1F00900340F4F0FF1F00A00440F0
:1045400030B5034600208B21C9050022034C044DE1
:104550002C60044C044D2C6030BD00000000C842AB
:1045600068F1FF1F0000C8C264F1FF1FFEB50646D8
:104570000D468B27FF050020029000241FE0002C31
:1045800001D17F2C1AD0611C4900705AFDF7D0F977
:104590000746611E4900705AFDF7CAF90290384675
:1045A000029902F047FC012189070090FDF7A6F867
:1045B0000190FDF753F900B261006852641C802C31
:1045C000DDD30021FE2041532980FEBDF8B505460C
:1045D0000F4616460FA1104800F078FE0FA10E48B6
:1045E00000F074FE3C4610E0B44206D160002A5E42
:1045F0000BA1094800F06AFE05E060002A5E0AA1EE
:10460000054800F063FE601C84B2701C8442EBDB42
:10461000F8BD00000D0A000070F7FF1F4C3A0000C3
:1046200025640D0A0000000025642C00F3B587B056
:104630000E460798FDF738F804460022394B02F081
:104640009BFA03D27F20C00507900AE00798FDF788
:104650002BF804460022344B02F05CFA01D23348B6
:1046600007903046FDF720F8044600222D4B02F05B
:1046700083FA02D27F26F60509E03046FDF714F8EA
:1046800004460022284B02F045FA00D2274E079834
:10469000FDF70AF80022234B01910090FCF78CFCF7
:1046A0000446002201239B07FCF7B6FC039102900D
:1046B000FCF7C8FA1E4905908868FDF739F904909F
:1046C000059902F027FB0746FDF7EEF881B218487E
:1046D0000162016A81623046FCF7E6FF044600226F
:1046E000104BFCF769FC002201239B07019100900D
:1046F000FCF792FC03910290FCF7A4FA07460C49E0
:104700008868FDF715F93946049002F003FB05901F
:10471000FDF7CAF881B2064801610169816109B0FB
:10472000F0BD00000000F03F0000F0BF000080BFBF
:104730000080034010B5FFB081B0044640A91B487B
:104740000068FFF7B1FC694640A8FFF70FFF21465C
:10475000684600F083F80020002806D102280BD01C
:1047600003280FD0042819D112E07F2200210F481E
:104770000068FFF779FB11E07F22002140A8FFF7D6
:10478000A3FB0BE07F2200216846FFF71FFF05E037
:104790007F2200212046FFF719FF00BF00BF6846B7
:1047A000FFF7CEFE7FB001B010BD0000DCF0FF1FB0
:1047B00070B504462548406801210904084323498F
:1047C0004860084640680321090688431F4948603D
:1047D000084640680121090608431C49486008460C
:1047E000C06B0121090608431849C8630020184915
:1047F0000860174980314860154908601549096803
:104800004808FDF795F806462146FCF777FF054670
:10481000FDF74AF80E4988602820C86024210C481A
:1048200041612821C1612421416200210846FFF72E
:10483000FDFE07480068082108430549086008157F
:10484000054948608860C860086170BD0080044008
:1048500000800340F4F0FF1F00B0044010B5024692
:1048600000204AE0022801D37D2803D90023440018
:104870000B5341E04300D45E431E5B00D35E9C4279
:1048800006DB4300D45E431C5B00D35E9C420DDA22
:104890004300D45E431E5B00D35E9C4229DC430090
:1048A000D45E431C5B00D35E9C4222DC4300D35A9F
:1048B00044000B53431E5B00CB5E44000C5FA342DD
:1048C00007D14300CB5E002B03DA002344000B53D7
:1048D00012E0431E5B00CB5E44000C5FA3420BD191
:1048E0004300CB5E002B07DD0024431E5B00CC524F
:1048F00002E0002344000B53401C8028B2D310BDBB
:104900000020024909698906080F704700F10F402D
:10491000C107C90F002904D00121C902174A5160FB
:1049200003E00121C902154A9160022101400029DA
:1049300004D001218902114A516003E0012189025A
:104940000E4A916004210140002904D0012149024E
:104950000A4A516003E001214902084A9160082196
:104960000140002904D0FF210131044A516003E0D5
:10497000FF210131014A91607047000040F00F4073
:1049800010B5FFF71FFB0020024908800F20FFF73A
:1049900047FD10BDECF0FF1FF0B589B004460D4691
:1049A00016463046FCF780FE0022284B0791069001
:1049B00002F0B0F820D201218907304602F0AAF9AE
:1049C000432109060190FCF799FE0746FCF76CFEAF
:1049D00001221F4B03910290FCF742FD1D4A1E4B22
:1049E00005910490FCF700FB07910690FCF72AF96B
:1049F00020601A48286027E01949304602F0E2F9A1
:104A00001FD2164820604107304602F083F9432147
:104A100009060190FCF772FE0746FCF745FE0122ED
:104A20000B4B03910290FCF71BFD0A4A0A4B0591C0
:104A30000490FCF7D9FA07910690FCF703F9286077
:104A400002E008482060286009B0F0BD000024C0E2
:104A50000000D03F9A9999999999E13F9A99993E86
:104A600000002041CDCC0C3FF8B504460D46002C8B
:104A700002D0012C0ED000BF0E498868FCF758FF09
:104A80000746294602F046F90646FCF70DFF0A499B
:104A900008800DE007498868FCF74AFF0746294669
:104AA00002F038F90646FCF7FFFE0449088000BF13
:104AB00000BFF8BD00900340CCF0FF1FCEF0FF1FF9
:104AC0001D48806B0321090308431B498863FF20AD
:104AD00041301A4948601A49C8610020486188611C
:104AE00018484069802108431649486115484030FC
:104AF000406902210843134940314861022088601F
:104B000080201049886000200F490870084600780E
:104B100000020E4940180E4908600B480078000258
:104B20000C4940180C4908600C480D4908600D48B4
:104B30000D490860704700000080044000D0044028
:104B400000C00440C0F00F40D8F0FF1FACF1FF1FC1
:104B5000D0F0FF1FACF3FF1FD4F0FF1FACF2FF1F1C
:104B6000DCF0FF1FACF4FF1FE0F0FF1F00B50300F7
:104B700000F086FD0505101B2631040000BF012151
:104B8000C9021B4A91604910916049109160491017
:104B900091602BE00121C902154A516049109160D2
:104BA000491091604910916020E00121C902104A2A
:104BB000516049105160491091604910916015E0B1
:104BC0000121C9020A4A51604910516049105160DF
:104BD000491091600AE00121C902054A516049105B
:104BE0005160491051604910516000BF00BF00BDC5
:104BF00040F00F40F0B58FB00026002700200D9048
:104C000092480C9000200B900A90FFF79FF80190BB
:104C1000FCF74AFD00228E4B03910290FCF720FC2A
:104C200004460D4668004008069407900C98FCF76F
:104C30003BFD05910490079B069AFCF711FC099136
:104C40000890FBF7FFFF0C9000200A908148007845
:104C500002280ED180480068804908608048814958
:104C600008607D4800680121C90748407E49086006
:104C700091E07848007803280FD177480068794997
:104C800008600020754908607348016843200006E9
:104C900002F0D0F8744908607DE06E480078012881
:104CA00059D1704801686D48006801F0DFFF15D1E7
:104CB00069480068FCF7F8FC044600226B4B01F0E1
:104CC0005BFF04D2644800686649086006E06248F9
:104CD0000068624908606248624908605F4801688C
:104CE0005D48006802F0A6F8044600F087FC06461E
:104CF0005C4801685848006802F09CF8044600F0DF
:104D00007DFC07463946304602F05CF80FD2524827
:104D10000068544908600020504908604E48016806
:104D20004320000602F086F84F49086033E0314620
:104D3000384602F047F82ED24748006847490860D5
:104D4000474848490860444800680121C90748406D
:104D5000454908601FE044480068FCF7A5FC04468C
:104D6000434A444BFCF77CFB07910690424800689D
:104D7000FCF79AFC0446414A414BFCF771FB059154
:104D80000490079B069AFCF717F909910890FBF726
:104D900059FF3549086034480D99006802F04AF817
:104DA0003149086008460068FCF77EFC0446354A35
:104DB000354BFCF755FB0791069034480068FCF72B
:104DC00073FC05910490079B069AFCF7F5F809918E
:104DD0000890FBF737FF2D490860274801682248F3
:104DE000006802F027F80790FCF75EFC254A264B86
:104DF00009910890FCF734FB0446FBF723FF244994
:104E00000860084601680A9801F084FF05461648C4
:104E100001680C9801F07EFF2946059001F0E0FE44
:104E20000446FCF741FC1B4A1B4B07910690FCF71C
:104E3000C3F809910890FBF705FF184908600A4874
:104E400000680D4908600FB0F0BD00000ED5ED3BC5
:104E50000000044004F1FF1F08F1FF1F58F1FF1F7D
:104E60000000FE425CF1FF1F10F1FF1F00C04F4029
:104E7000989999999999B93F14F1FF1FCDCCCCCC51
:104E8000CCCCEC3F7B14AE47E17A943F18F1FF1F86
:104E90001CF1FF1F0AD7A3703D0AB7BF20F1FF1F07
:104EA0000146086A402398430862486A0B239843E6
:104EB0004862486A072318434862486A80231843B7
:104EC000486200BF0868802318400028FAD0486A6A
:104ED00040231840402801D1012070470022C86CAF
:104EE00082B2886C801882B2486C801882B2086CDA
:104EF000801882B2C86B801882B2886B801882B228
:104F00001046D30F1B185A100120C0030243CA6277
:104F10000022C86E82B2886E801882B2486E8018F5
:104F200082B2086E801882B2C86D801882B2886D15
:104F3000801882B21046D30F1B185A100120C003EC
:104F400002430A63486A8023984348620020C4E70A
:104F500010B5FFF7F9F8FFF713FDFFF7B1FD064AAB
:104F600006490748FFF766FA002006490860064828
:104F7000FFF71EFC10BD00000AD7A33C6F12033BD5
:104F80006F12033AF0F0FF1F00007A4510B50120C0
:104F900040050E49886000210846FFF747FB0C4991
:104FA0000020FFF73FF80020FFF7E0FD002009494F
:104FB00008800949088009490870094800780428D0
:104FC00003DA07480078FFF7D1FD10BD00F10F406C
:104FD000EC51B8BD50F1FF1F06F1FF1F56F1FF1F46
:104FE00053F1FF1F10B54848007801281AD0022855
:104FF00002D003287AD10AE00120C0024349486068
:1050000040108860401088604010886079E001207E
:10501000C0023E498860401088604010886040109F
:1050200048606EE000213A48006801F01FFE2BD175
:1050300038493948006801F019FE25D0374936480B
:10504000006801F03DFE04D20120C0022F494860F3
:1050500003E00120C0022D4988608521C9052E4842
:10506000006801F02DFE04D201208002274948602B
:1050700003E0012080022549886001204002234985
:1050800048604010486030E022492348006801F041
:10509000EDFD2AD100211E48006801F093FE24D2C4
:1050A0000120C00219494860401048601C49184856
:1050B000006801F087FE04D20120400213494860D5
:1050C00003E0012040021149886016491048006839
:1050D00001F078FE05D2FF2001300C49486004E061
:1050E00004E0FF200130094988600AE00120C00285
:1050F00006498860401088604010886040108860D1
:1051000000BF00BF10BD000004F1FF1F40F00F40C2
:1051100058F1FF1F0000FE425CF1FF1F0000044237
:1051200000007C420000BE4270B5054600680122C6
:1051300003690021284698470446401C0ED0286881
:105140000222036900212846984706462868002263
:105150000369214628469847304670BD0020C04369
:1051600070BD000030B5074901600021064C0B46B8
:105170008A00A558854200D1A350491C1029F7D3B5
:1051800030BD0000E4720000ACF5FF1F01688968C3
:10519000084710B50246001D01F0E8FB10BD10B530
:1051A000001D01F031FC10BD10B50446034820601D
:1051B000034801F045FC204610BD000010730000BC
:1051C0008D51000010B5044603482060201D01F0F9
:1051D0001BFC204610BD0000107300000168002970
:1051E00000D008474268002A04D00146836908318C
:1051F000104618477047016000214160704709015F
:1052000010B50818203000F0B4F910BD10B50C46E8
:10521000183001F04DFB204610BD000070B50E4661
:105220001546194600F062F80D49016034314160BD
:10523000022310220B49203000F057FA04462A4678
:105240000838203C3146054601F08AFA4B20C0015F
:10525000206422460449284601F01EFB204670BD0A
:1052600024730000353A0000FF51000010B50446D9
:10527000074820603430022310220649606020462F
:105280002030FBF7CDFC204600F04EF8044610BD60
:1052900024730000E1550000002070470020704793
:1052A00000207047F8B50E4607460C468D1807E0FB
:1052B00038682178426A641C38469047401C01D007
:1052C000AC42F5D1A01BF8BD002070470FB470B5FB
:1052D000054606AC4069FBF76CFA224668690599F9
:1052E000FAF7E8FF70BC08BC04B018473EB500F000
:1052F0009DF804460948206034306060224608A1C9
:105300006846FAF7E9FF07A16846FBF7B5FA0021FE
:105310006061FBF74DF820463EBD00006873000059
:105320003A257000772B000010B504460548206030
:10533000343060606069FBF7C9FA204600F086F8F7
:1053400010BD00006873000070B50D460446FFF7FD
:1053500026FF256101F048FB216941182046FFF72F
:1053600018FF70BD10B504464068216941182046F9
:10537000FFF70FFF2046143000F0FBF810BD0000CF
:1053800010B504490160143000F02AF91438FFF711
:1053900019FF10BDAC730000007B704770B5064666
:1053A0000C480D46046810E0A06800280CD02A467E
:1053B0003146FBF7D3FA002806D1A068FBF7ACFA18
:1053C000A84201D1204670BD6468002CECD10020B9
:1053D00070BD000094F1FF1F064B036081600273F3
:1053E000002904D004490A6842600860704700211F
:1053F00041607047C073000094F1FF1F09490160CC
:105400008168002905D0084A1168814203D14168AA
:105410001160704711464A688242FBD142684A6077
:1054200070470000C073000094F1FF1F10B5054ADB
:1054300004C00022FFF7D0FF001F034901602C3198
:10544000416010BDE4720000D073000010B5001D73
:10545000FFF7D4FF001FFFF785FE10BD10B504460F
:1054600000F004F8002800D0606810BD10B5406856
:10547000FFF792FF012800D0002010BD10B50446B0
:1054800000F007F8002803D06068002800D0001F53
:1054900010BD10B54068FFF77FFF002801D0002045
:1054A00010BD012010BD0068704770B50446002093
:1054B0002060606008782F280FD1487800280CD031
:1054C0004E1C00253146266008782F2807D000287A
:1054D00007D06D1C491C2160F6E7204670BD481CB2
:1054E000206029463046FFF759FF29463046FFF72E
:1054F00055FF6060F1E770B50D46044600F009F80D
:10550000E168606889004550E068401CE06028461A
:1055100070BD70B50446C168806881421ADB72B6FE
:10552000042801DA042000E0001DA0608000054688
:1055300000F075F82A460021FBF760FA0546E0689E
:10554000616882002846FAF78BFE606800F063F815
:10555000656062B670BD70B504460D461C2000F053
:1055600063F82946FFF747FE01462046FFF7C3FFD1
:1055700070BD70B50546002405E06868A10040587C
:10558000FFF72CFE641CE868A042F6DC70BDF8B59D
:10559000054672B60024274607E06868A6008059D1
:1055A00000F039F86868641C8751E868A042F4DCB0
:1055B000EF6062B6F8BD000070B504460748A16010
:1055C00020600020E0608800054600F028F82A46A8
:1055D0000021FBF713FA6060204670BD0C740000D8
:1055E00010B50446044820602046FFF7D0FF6068ED
:1055F00000F011F8204610BD0C740000014600BFF9
:1056000048004008704770B504460D4629462046BC
:1056100000F0A6FC70BD10B5FCF7C3F910BD10B5C5
:1056200000F002F810BD000010B5040008D10124FC
:1056300006E0FAF7DFFE0068002800D10348804743
:105640002046FCF77DF90028F3D010BD4F24000060
:10565000F8B5040C8BB2264682B25E43104658431E
:105660000D0C370C360400218019164679416E4323
:10567000370C36048019264679416E438919F8BDE6
:1056800030B47446641E2578641CAB4204D3635D59
:105690005B00E31830BC18471D46F8E74900CA0212
:1056A0000243100000D004204A0D01D00122104313
:1056B000044A490D914201D102210843012800D139
:1056C00005207047FF0700004100080200D00420B9
:1056D0000A0E01D001221043090EFF2901D1022137
:1056E0000843012800D105207047FFB581B01C4652
:1056F00017460E0007D0019D02E02846B047ED197D
:105700002046641EF9D2019805B0F0BD10B5002006
:10571000FCF763FE10BD10B57F200021C005FBF72C
:10572000EDFF10BD10B501F05BFA10BD10B5002102
:105730000846FBF7E3FF10BD10B507206121000705
:10574000FCF74AFF10BD5E2110B5C9430807FCF7FE
:1057500043FF10BD10B50023042208210448FFF7C1
:105760005DFD0446034A0449FAF72FFE10BD000010
:1057700070F7FF1F000000006D52000010B50023FD
:10578000042208210448FFF749FD0446034A04495E
:10579000FAF71BFE10BD000034F8FF1F00000000E8
:1057A0006D52000070B50023042208210D48FFF758
:1057B00035FD04460C4A0D49FAF707FE0C4C20460D
:1057C000FFF7F2FC04460B48042120602046143009
:1057D000FFF7F2FE0546143D034A07492846FAF74B
:1057E000F4FD70BDECF5FF1F000000006D520000DD
:1057F0003CF7FF1FAC7300008153000010B500237D
:10580000042208210448FFF709FD0446034A04491D
:10581000FAF7DBFD10BD0000F0F7FF1F00000000ED
:105820006D52000002486A46C008C0007047000080
:10583000AFF9FF1F30380A2801D20120704700203D
:1058400070470000032801DA0020704781000748F4
:10585000002209184039486B4A63002802D00168C9
:10586000496808470020C04370470000ACF5FF1F9F
:10587000032801DA002070470649800040184038AC
:10588000406B002802D00168896908470020C043A6
:1058900070470000ACF5FF1F032801DA01207047B4
:1058A0000649800040184038406B002802D001684B
:1058B000C96808470020C04370470000ACF5FF1FCF
:1058C000FEB50E4605463949FBF7A6F8002817D065
:1058D00036492846C91DFBF79FF8002814D03349E4
:1058E00028460F31FBF798F8002811D0304F0024DC
:1058F000A000385800280FD0641C102CF8D351E0B9
:10590000FEF7A2FA0020FEBDFEF79EFA0120FEBDC2
:10591000FEF79AFA0220FEBD102C43D228783A28CE
:105920000CD029466846FFF7C0FD6846FFF7B1FD79
:105930000028684609D0FFF7A1FD2DE06A461DA1A9
:105940002846FAF715FD009826E0FFF787FD0028A6
:1059500028D0B10701D5022508E0710701D501253E
:1059600004E0310701D5092500E000253107890F42
:1059700002D0012149020D43710702D5012189029C
:105980000D432E4605466846FFF78DFD0146286803
:105990003246836828469847002803D0A1007850F3
:1059A000E01CFEBD0020C043FEBD0000146F0000DF
:1059B000ACF5FF1F3A257000032801DA002070477C
:1059C000064A800080184038406B002803D00268E7
:1059D0001369002218470020C0437047ACF5FF1F31
:1059E00070B515460E46032810DA104800680028E6
:1059F00001D1FEF729FA002404E0315D0C4800F0E3
:105A000057FF641CAC42F8D328460AE009498000DD
:105A100040184038406B002805D001680B683146BB
:105A20009847281A70BD0020C04370BD70F1FF1F59
:105A300078F1FF1FACF5FF1F044600F0F3F90028D2
:105A400001D000F0A3FD002C01D000F0D3F9FEE757
:105A500010B58A68002A02DCFCF7F0F910BD521E6E
:105A60008A604A68C0B2531C4B60107010BD002998
:105A700007D0012904D181680A68406802430A609E
:105A8000704781680A6840688243F8E770B5044649
:105A900016460D46481C1ED02580284600F01EF8EC
:105AA0006060280B0C4980014018011DE160091D50
:105AB0002161083161611430A06031462046FFF752
:105AC000D6FF002E03D0012E05D1002100E00221D7
:105AD000284600F0CDF970BD00F00FF810B504466F
